:100000000C945D000C9485000C9485000C94850084
:100010000C9485000C9485000C9485000C9485004C
:100020000C9485000C9485000C9485000C9485003C
:100030000C9485000C9485000C9485000C9485002C
:100040000C94BF040C9485000C948D040C946704EC
:100050000C9485000C9485000C9485000C9485000C
:100060000C9485000C94850000000008000201003B
:100070000003040700000000000000000000000072
:10008000250028002B0000000000240027002A0083
:10009000040404040404040402020202020203032E
:1000A0000303030301020408102040800102040836
:1000B0001020010204081020090511241FBECFEFF3
:1000C000D8E0DEBFCDBF21E0A0E3B1E001C01D92CA
:1000D000AE3EB207E1F711E0A0E0B1E0E8EAFCE0F3
:1000E00002C005900D92A033B107D9F710E0CDE51D
:1000F000D0E004C02197FE010E944C06CC35D10708
:10010000C9F70E9454050C9452060C94000090E02C
:10011000FC01EC55FF4F249180579F4FFC018491C7
:10012000882399F090E0880F991FFC01EA57FF4F50
:10013000A591B491FC01E458FF4F859194918FB73C
:10014000F894EC91E22BEC938FBF0895AF92BF929D
:10015000CF92DF92EF92FF920F931F93CF93DF9393
:100160006C017B018B01040F151FEB015E01AE18C2
:10017000BF08C017D10759F06991D601ED91FC91E4
:100180000190F081E02DC6010995892B79F7C50111
:10019000DF91CF911F910F91FF90EF90DF90CF9063
:1001A000BF90AF900895FC01538D448D252F30E012
:1001B000842F90E0821B930B541710F0CF96089574
:1001C00001970895FC01918D828D981761F0A28DA1
:1001D000AE0FBF2FB11D5D968C91928D9F5F9F7367
:1001E000928F90E008958FEF9FEF0895FC01918D1D
:1001F000828D981731F0828DE80FF11D858D90E08A
:1002000008958FEF9FEF08952FB7F89480913501EF
:1002100090913601A0913701B09138012FBF8093A2
:10022000410190934201A0934301B093440189E3BB
:1002300091E00E94F60097FF26C02FB7F8948091B6
:10024000350190913601A0913701B09138012FBF4F
:1002500040914101509142016091430170914401EC
:10026000841B950BA60BB70B40913D0150913E01AD
:1002700060913F017091400184179507A607B70769
:10028000B0F28FEF9FEF0895CF92DF92EF92FF923F
:10029000CF930E940401FC0197FD4EC08D32910561
:1002A00021F0C0970A9708F040C0C12CD12C7601EC
:1002B000C0E0E130F105D1F0ED32F105D9F1CF0127
:1002C000C0970A9798F4AAE0B0E0A70196010E94AF
:1002D00010066F01FF0FEE08FF08C60ED71EE81EBE
:1002E000F91E80E3C81AD108E108F10889E391E01A
:1002F0000E94E2000E940401FC01C0970A97C8F224
:10030000E130F105B1F2CC2341F0F094E094D094C7
:10031000C094C11CD11CE11CF11CC701B601CF91D6
:10032000FF90EF90DF90CF90089589E391E00E94D5
:10033000E200AFCFC1E0DACFC12CD12C7601EDCFF6
:10034000FC01918D228D892F90E0805C9F4F821B54
:1003500091098F739927089589E391E00E94A00184
:1003600021E0892B09F420E0822F089580E090E0BD
:10037000892B29F00E94AC0181110C940000089592
:10038000FC01A48DA80FB92FB11DA35ABF4F2C910A
:10039000848D90E001968F739927848FA689B78901
:1003A0002C93A089B1898C91837080648C93938DF8
:1003B000848D981306C00288F389E02D80818F7D9B
:1003C00080830895EF92FF920F931F93CF93DF9353
:1003D000EC0181E0888F9B8D8C8D98131AC0E88981
:1003E000F989808185FF15C09FB7F894EE89FF8950
:1003F0006083E889F98980818370806480839FBFEE
:1004000081E090E0DF91CF911F910F91FF90EF90ED
:100410000895F62E0B8D10E00F5F1F4F0F731127FD
:10042000E02E8C8D8E110CC00FB607FCFACFE88938
:10043000F989808185FFF5CFCE010E94C001F1CFFF
:10044000EB8DEC0FFD2FF11DE35AFF4FF0829FB7AC
:10045000F8940B8FEA89FB8980818062CFCFCF939C
:10046000DF93EC01888D8823B9F0AA89BB89E889DC
:10047000F9898C9185FD03C0808186FD0DC00FB682
:1004800007FCF7CF8C9185FFF2CF808185FFEDCF00
:10049000CE010E94C001E9CFDF91CF91089590E095
:1004A000FC01E859FF4F2491FC01EC55FF4F3491BA
:1004B000FC01E057FF4FE491EE23C9F0222339F00D
:1004C000233001F1A8F4213019F1223029F1F0E0B4
:1004D000EE0FFF1FE458FF4FA591B4918FB7F8942A
:1004E000EC91611126C030953E233C938FBF089557
:1004F0002730A9F02830C9F0243049F780918000D6
:100500008F7D03C0809180008F7780938000DFCF44
:1005100084B58F7784BDDBCF84B58F7DFBCF809191
:10052000B0008F778093B000D2CF8091B0008F7DE4
:10053000F9CF3E2BDACF089590E080E008958F92B6
:100540009F92AF92BF920F931F93CF93DF93CDB73C
:10055000DEB7A1970FB6F894DEBF0FBECDBF19A2CC
:10056000423008F44AE08E010F5D1F4F842E912C1B
:10057000B12CA12CA50194010E942A06E62FB901F5
:10058000CA01EA3044F5E05DD801EE938D01232BDA
:10059000242B252B79F790E080E0109769F0FD017E
:1005A00001900020E9F73197AF014A1B5B0BBD01B9
:1005B00086ED91E00E94A600A1960FB6F894DEBFEA
:1005C0000FBECDBFDF91CF911F910F91BF90AF9024
:1005D0009F908F900895E95CD7CFCF93DF93EC0184
:1005E00060E08E810E944F0261E08E810E944F0286
:1005F00060E08E810E944F028BE891E00197F1F755
:10060000DF91CF910895CF92DF92EF92FF920F93F7
:100610001F93CF93DF936C017C0187E0E80EF11C00
:10062000D0E0C0E0062F10E0B8010C2E02C0759596
:1006300067950A94E2F76170F70181917F010E944A
:100640004F022196C430D10579F7C601DF91CF91D1
:100650001F910F91FF90EF90DF90CF900C94ED02DF
:10066000CF92DF92EF92FF920F931F93CF93DF937E
:10067000EC01F62E642F8C810E944F028D818F3FFA
:1006800019F060E00E944F020F2D10E08F8584FF6B
:1006900025C06E0187E0C80ED11CF12CE12CB801F9
:1006A0000E2C02C0759567950A94E2F76170F60109
:1006B00081916F010E944F02FFEFEF1AFF0A88E05D
:1006C000E816F10461F7CE01DF91CF911F910F91F0
:1006D000FF90EF90DF90CF900C94ED02B80184E092
:1006E000759567958A95E1F7CE010E9403036F2DFA
:1006F000CE01DF91CF911F910F91FF90EF90DF908E
:10070000CF900C94030340E0682F86ED91E00C94A9
:100710003003CF93DF93613029F09091E501986029
:100720009093E5016093E9011092EA0190E49093BF
:10073000EB018093EC01805C8093ED018091DA0104
:100740000E9487008091DB018F3F11F00E9487009B
:100750008091DC010E948700C6EDD1E09E01265DFC
:1007600031408091E50184FD0AC084E090E021964B
:10077000281739073CF48E810E948700EFCF88E06C
:1007800090E0F5CF8BE39DE00197F1F760E0809179
:10079000DA010E944F0260E08091DC010E944F026A
:1007A0008091DB018F3F19F060E00E944F02809141
:1007B000E50184FD39C063E086ED91E00E9403030A
:1007C000CBE4D6E4CE010197F1F763E086ED91E04A
:1007D0000E9403032197F1F763E086ED91E00E9408
:1007E000030383E592E00197F1F762E086ED91E083
:1007F0000E9403038091E50180620E94830384E0EC
:100800008093E6018CE00E94830381E00E948303D1
:100810008BE39FE10197F1F782E08093E70186E0A7
:10082000DF91CF910C94830380620E9483038BE459
:1008300096E40197F1F78091E50180620E948303BD
:1008400083E592E00197F1F78091E50180620E94D3
:100850008303D0CF9091E901891710F08FEF890FB2
:10086000E82FF0E0EA52FE4F848980680C948303FD
:1008700041E00E94300381E090E00895CF92DF9242
:10088000EF92FF926C01990FEE08FF08F7FE16C079
:1008900041E06DE286ED91E00E9430036627772704
:1008A000CB016C197D098E099F094AE00E949F02C5
:1008B0000196FF90EF90DF90CF9008954AE0C70136
:1008C000B601FF90EF90DF90CF900C949F021F92A3
:1008D0000F920FB60F9211242F933F934F935F9374
:1008E0006F937F938F939F93AF93BF93EF93FF93F8
:1008F00089E391E00E94C001FF91EF91BF91AF9118
:100900009F918F917F916F915F914F913F912F9127
:100910000F900FBE0F901F9018951F920F920FB659
:100920000F9211242F938F939F93EF93FF93E09156
:100930004901F0914A018081E0914F01F09150010D
:1009400082FD1BC09081809152018F5F8F73209137
:100950005301821741F0E0915201F0E0E75CFE4F55
:10096000958F80935201FF91EF919F918F912F91DD
:100970000F900FBE0F901F9018958081F4CF1F929B
:100980000F920FB60F9211242F933F938F939F9343
:10099000AF93BF938091350190913601A0913701BB
:1009A000B09138013091340123E0230F2D3758F5F1
:1009B0000196A11DB11D20933401809335019093C0
:1009C0003601A0933701B0933801809130019091A6
:1009D0003101A0913201B09133010196A11DB11DE9
:1009E0008093300190933101A0933201B093330191
:1009F000BF91AF919F918F913F912F910F900FBE1B
:100A00000F901F90189526E8230F0296A11DB11D87
:100A1000D2CFE9E3F1E01382128288EE93E0A0E006
:100A2000B0E084839583A683B78384E091E09183CB
:100A3000808385EC90E09587848784EC90E09787AD
:100A4000868780EC90E0918B808B81EC90E0938B9B
:100A5000828B82EC90E0958B848B86EC90E0978B78
:100A6000868B118E128E138E148EE6EDF1E01382BA
:100A7000128286E191E0918380838DE084838FEF01
:100A800085838CE086838BE087838AE0808789E09A
:100A9000818788E0828713861486158616861786D6
:100AA00061E080E10C948903789484B5826084BD10
:100AB00084B5816084BD85B5826085BD85B5816062
:100AC00085BD80916E00816080936E0010928100E0
:100AD000809181008260809381008091810081609B
:100AE000809381008091800081608093800080915C
:100AF000B10084608093B1008091B00081608093E8
:100B0000B00080917A00846080937A0080917A00AE
:100B1000826080937A0080917A00816080937A006D
:100B200080917A00806880937A001092C100E091F1
:100B30004901F0914A0182E08083E0914501F09102
:100B400046011082E0914701F09148018FEC8083CB
:100B500010925101E0914D01F0914E0186E08083A9
:100B6000E0914B01F0914C01808180618083E091A4
:100B70004B01F0914C01808188608083E0914B01B2
:100B8000F0914C01808180688083E0914B01F0916D
:100B90004C0180818F7D808364E084E10E94890321
:100BA000C0E0D0E089E391E00E94A0011816190688
:100BB00074F589E391E00E94E2008D3041F50E94D6
:100BC00044014B010E9444016B0180E00E942A0411
:100BD00045E050E06EE171E086ED91E00E94A600F4
:100BE00081E00E942A04C4010E943E0482E00E9427
:100BF0002A044BE050E064E271E086ED91E00E944F
:100C0000A60083E00E942A04C6010E943E042097A9
:100C100049F20E94AC01882329F20E940000C2CF51
:100C20000E941B06A59F900DB49F900DA49F800D60
:100C3000911D11240895A29FB001B39FC001A39FED
:100C4000700D811D1124911DB29F700D811D112405
:100C5000911D0895A1E21A2EAA1BBB1BFD010DC018
:100C6000AA1FBB1FEE1FFF1FA217B307E407F5075C
:100C700020F0A21BB30BE40BF50B661F771F881F38
:100C8000991F1A9469F760957095809590959B01CE
:100C9000AC01BD01CF010895EE0FFF1F0590F49147
:080CA000E02D0994F894FFCF48
:100CA80000000000E201A600D3002F02A001E2002C
:100CB800F600000000003804A6009C029B02544580
:100CC8004D503A00536F696C5F4C6576656C3A001D
:00000001FF
